:4000000000100020110000008D0300008D03000008B500F0BDF9C04610B5164C23688022D20213432360182000F012FB2268124B13402360114A124B1A602022114B1A60B9
:400040001023114A1360114A136080221206104B1A60104A104B1A60104A114B1A600920104900F0C1FA092000F0B2FA00220E4B1A6010BD00010B40FFFFFBFF0600008045
:4000800004010B400C020240200202402402024008010B400700008000000240CF00008040000240610800000C020B4010B572B6002410E0274863001A1952008218918819
:4000C0001B195B001A5AC31858880004104300F0C1F90134E4B2012CECD91E49081C0C301C3100F09DF91C4A1C4B1A601C4A1D4B1A6099231B041C4A1360802149021B4A56
:4001000011601B4A1360802212061A4B1A601A4B197802220A431A70184802783C218A4328390A430270197816220A431A702122134B1A60134A144B1A602022134B1A60BD
:400140006032134B1A60134A134B1A60FFF764FF10BDC046A00B0000030099000000014000EE00300C00014000500F4008500F4030500F4038500F4000700F4001700F4056
:400180000000044006100300080004401800044000030440800DC0000803044010B5064C2378002B07D1054B002B02D0044800E000BF0123237010BDE000002000000000E6
:4001C0005C0B000008B5084B002B03D00748084900E000BF07480368002B00D108BD064B002BFBD09847F9E7000000005C0B0000E4000020C80000200000000008B562B6A2
:4002000000F0E4FB00F056FC00F03EF908BDC04610B50C1C00F086FB201C00F0F7FB10BDF8B5FFF7EBFF4C4800F0C6F94B4800F0C3F94B4896214901FFF7EAFF00F0A6F961
:40024000C4B2002CFAD0FF23184000F03BF9512C04D1FA2000014349FFF7DAFF712C04D13F4896214901FFF7D3FF482C04D13E48FA210901FFF7CCFF682C04D13848962195
:400280004901FFF7C5FF5A2C03D138483549FFF7BFFF7A2C04D1324896214901FFF7B8FF592C03D132483349FFF7B2FF792C04D12B4896214901FFF7ABFF4A2C14D1FA2092
:4002C00000012849FFF7A4FFFA20C00000F09EF929482849FFF79CFF284800F097F9204896214901FFF794FF552C1FD1FA2636011C4D301C291CFFF78BFFFA20C00000F031
:4003000085F91D4F381C1B49FFF782FF381C00F07DF9301C291CFFF77BFFFA20C00000F075F90F4896214901FFF772FF532C85D10E480C49FFF76CFF114800F067F90C4814
:400340001049FFF765FF104800F060F9044896214901FFF75DFF71E7600B0000780B0000941100009E1400001E140000541000003C0F0000EC130000AC0D0000B80B000091
:40038000501400008813000004100000FEE7C04670B50F4E0F4D13E029686B68AC68002202E001C901C30432A242FAD1E868002202E0002102C304328242FAD11035013EFC
:4003C000002EE9D100F09CFBFFF72AFFFEE7C04601000000280C000008B500230AE0032B03D89A000A49505800E00A4899000A4A885001332F2BF2D9FFF758FE0022074BD7
:400400001A608022D205116801230B43136008BD000000008D03000000000020C0000020F0B50025002711E0BB00C658F3B2FF22964308E06A008A181478A4195278227023
:400440000135013BDBB2002BF4D10137032FEBD9F0BDC04608B50A1C002100F077FB08BD08B500F085F808BD08B500F039F808BD08B5044A1368802109060B431360FFF702
:40048000EFFF08BD0000074008B5064B1B78002B04D1FFF7E9FF0122024B1A70FFF7E8FF08BDC046FC000020014B18687047C04640030740024B1B680F2018407047C046DE
:4004C00008030740044B1B680F221340082BF9D0024B18607047C046080207404002074010B5124A124B1A600023124A13600121114A1160114A1248026007241148046025
:40050000114803601148016011490A60114A1360114A1360114A1360114A1360114A1360114A1360114A136010BDC0460B000002000007404000074048000740070000801B
:40054000000307400403074010030740440007400002074004020740880E0740C80E0740480F0740080F0740C80F0740880F0740044A1168044B0B40902109040B43136096
:400580007047C04600000140FFFF0FFF08B5FFF791FF002802D0FFF787FF00E00020054B1A68D8239B001A4203D01A1C014B1A60002008BDC00F074038B5051C002402E0D6
:4005C000FFF780FF0134285D0028F9D138BDC0461F2318401E3B8340181C014B1860704700E100E001BE704738B5041C0D1C1F2802D90020FFF7F6FFA400034B9C46644464
:400600002068256038BDC0464000002010B5041C06E0084B186800F05FFA074B9C46644480231B029C42F4D8024B5868604300F053FA10BDCC0000200080FFFF08B5034BF6
:400640001B7A584300F048FA08BDC046CC000020F0B557464E46C0B483B0041C00F046FA0190E71E2D2F74D83F4B1B78DBB2A34208D33E4B1B78DBB29A463D4B1B78DBB2BB
:40068000994631E03B4B1B78DBB2A34208D33A4B1B78DBB29A46394B1B78DBB2994623E0374B1B78DBB2A34208D3364B1B78DBB29A46354B1B78DBB2994615E0334B1B7871
:4006C000DBB2A34208D3324B1B78DBB29A46314B1B78DBB2994607E02F4B1B78DBB29A462E4B1B78DBB299462D4BDE5D2F2E09D92A2C07D919222B4B1A60052000F0ECF98F
:40070000192503E0274B1D683F231D40AE4206D2234BDA5D234B1A60052000F0DDF91F4B9C4664442378DBB21F4A13601F4B52461A601F4B4A461A600520FFF77FFFAE4231
:400740000AD9174BDA5D174B1A60052000F0C4F902E00020FFF746FF019800F0CBF903B00CBC91469A46F0BDC0F1FF0FC1F1FF0FC2F1FF0FC3F1FF0FC4F1FF0FC5F1FF0F5D
:40078000C6F1FF0FC7F1FF0FC8F1FF0FC9F1FF0FCAF1FF0FCBF1FF0FCCF1FF0FCDF1FF0FD40B00002CFF0B4028FF0B401CFF0B4020FF0B40034B1868C0231B02184000D068
:4007C0000120704700010B4008B500F08FF9044A1368C02109020B43136000F08BF908BD00010B4010B500F081F908490A68084B1A408024E40122430A600A681340802247
:40080000120213430B6000F075F910BD00010B40FF3FFFFF70B5061C00F068F9041CFFF7C9FF002803D0FFF7DDFF012500E000250848331C0340084A106808490840184322
:4008400010601368012D01D1FFF7BEFF201C00F051F970BD0404040010020B40FBFBFBFF10B5244B1B685B0715D5234B1B685B070ED5224B9969042001401F4C22688A430F
:4008800022609A6982439A61DB68002B00D098470420FFF7BFFF174B1B685B0518D5164B1B685B0510D5154B99698022D2001140114802688A4302609969114A0A409A61E8
:4008C0001B69002B00D098478020C000FFF7A2FF084B1B685B030CD5074B1B685B0304D5064B5B69002B00D098478020C002FFF791FF10BD10020B40DC0000200001002064
:40090000FFFBFFFF0004000C014B18607047C046080105400004000C014B18607047C046140105400004000C014B18607047C0460C01054038B5041C0D1C00F0D7F8AC4031
:40094000024B1C6000F0D6F838BDC0460800054008B500F0CBF8064A116801230B43136000F0C8F801201821FFF7E4FF08BDC04600000540014B18607047C0463801054098
:4009800010B50D4C8023DB042360236823600020FFF7B8FF236823600C22084B1A600120FFF7E8FF3122064B1A600648FFF7B2FF0548FFF7B7FF10BD0001054024010540A9
:4009C0002801054060EA0000B80B000008B5064B1B78002B04D1FFF7D3FF0122024B1A70FFF7B6FF08BDC0461C0100200004000C014B18607047C046480105400004000C37
:400A0000014B18607047C046540105400004000C014B18607047C0464C01054038B5041C0D1C00F063F8AC40024B1C6000F062F838BDC0460800054008B500F057F8064A64
:400A4000116802230B43136000F054F802201821FFF7E4FF08BDC04600000540014B18607047C0467801054010B50D4C8023DB042360236823600020FFF7B8FF236823604C
:400A80000C22084B1A600120FFF7E8FF3122064B1A600648FFF7B2FF0548FFF7B7FF10BD40010540640105406801054060EA0000B80B000008B5064B1B78002B04D1FFF7E2
:400AC000D3FF0122024B1A70FFF7B6FF08BDC0461D010020000000000230800804D0C0460138FDD1C046C046C0467047EFF3108072B6704780F310887047C046C046C046ED
:400B00000E4B70B500251E1C0D4CE41AA410A54204D0AB00F35898470135F8E700F072F8084B00251E1C084CE41AA410A54204D0AB00F35898470135F8E770BD100C000028
:400B4000100C0000100C0000180C0000031C8218934202D019700133FAE7704700000000435938434B49542D303432205553422D554152540D0A00004E6F772C6C6574274C
:400B80007320626567696E207468652074726176656C206F662050536F63340D0A00000000300F40000400400F40000401330F4002400F4002410F4007430F40E620568088
:400BC000D4408A809E8018101C8060108840C60CD802E604030405060708090A0B0C0E0F101112131415161718191B1C1D1E1F2021222325262728292A2B2E2F30313233A0
:400C000034350000F8B5C046F8BC08BC9E467047C5010000D9030000F8B5C046F8BC08BC9E4670479D010000380C0000C80000201800000040000000000000000000E02EED
:400C4000C05D00001800000000366E01040404000000000000000000000000000000000000000000000000000000000000000000000000000000000000000000000000008E
:400C80000000000000000000000000000000000000000000000000000000000000000000000000000000000000000000000000000000000000000000000000000000000034
:400CC00000000000000000000000000000000000000000000000000000000000000000000000000000000000000000000000000000000000000000000000000000000000F4
:400D000000000000000000000000000000000000000000000000000000000000000000000000000000000000000000000000000000000000000000000000000000000000B3
:400D40000000000000000000000000000000000000000000000000000000000000000000000000000000000000000000000000000000000000000000000000000000000073
:0200000490303A
:020000001F2AB5
:0200000490402A
:200000000000000000000000000000000000000000000000000000000000000000000000E0
:0200000490501A
:0C000000000204C81193110104CC30BDB3
:0200000490600A
:0100000001FE
:00000001FF